{
  "_format": "hh-sol-artifact-1",
  "contractName": "TodoContract",
  "sourceName": "contracts/TodoContract.sol",
  "abi": [
    {
      "inputs": [],
      "stateMutability": "nonpayable",
      "type": "constructor"
    },
    {
      "inputs": [
        {
          "internalType": "string",
          "name": "text",
          "type": "string"
        }
      ],
      "name": "addTodo",
      "outputs": [],
      "stateMutability": "nonpayable",
      "type": "function"
    },
    {
      "inputs": [],
      "name": "getTodoList",
      "outputs": [
        {
          "components": [
            {
              "internalType": "uint256",
              "name": "id",
              "type": "uint256"
            },
            {
              "internalType": "string",
              "name": "text",
              "type": "string"
            },
            {
              "internalType": "bool",
              "name": "isDone",
              "type": "bool"
            }
          ],
          "internalType": "struct TodoContract.Todo[]",
          "name": "",
          "type": "tuple[]"
        }
      ],
      "stateMutability": "view",
      "type": "function"
    },
    {
      "inputs": [
        {
          "internalType": "uint256",
          "name": "id",
          "type": "uint256"
        }
      ],
      "name": "toggleDone",
      "outputs": [],
      "stateMutability": "nonpayable",
      "type": "function"
    }
  ],
  "bytecode": "0x608060405234801561001057600080fd5b506100596040518060400160405280601081526020017f4465706c6f79696e67206120546f646f0000000000000000000000000000000081525061005e60201b6103d71760201c565b6101e1565b6100fa81604051602401610072919061015f565b6040516020818303038152906040527f41304fac000000000000000000000000000000000000000000000000000000007bffffffffffffffffffffffffffffffffffffffffffffffffffffffff19166020820180517bffffffffffffffffffffffffffffffffffffffffffffffffffffffff83818316178352505050506100fd60201b60201c565b50565b60008151905060006a636f6e736f6c652e6c6f679050602083016000808483855afa5050505050565b600061013182610181565b61013b818561018c565b935061014b81856020860161019d565b610154816101d0565b840191505092915050565b600060208201905081810360008301526101798184610126565b905092915050565b600081519050919050565b600082825260208201905092915050565b60005b838110156101bb5780820151818401526020810190506101a0565b838111156101ca576000848401525b50505050565b6000601f19601f8301169050919050565b610ad180620001f16000396000f3fe608060405234801561001057600080fd5b50600436106100415760003560e01c80630c7a16be1461004657806395ffebf514610064578063d81ef73914610080575b600080fd5b61004e61009c565b60405161005b919061078c565b60405180910390f35b61007e600480360381019061007991906105b9565b6101b2565b005b61009a600480360381019061009591906105fa565b61029c565b005b60606000805480602002602001604051908101604052809291908181526020016000905b828210156101a95783829060005260206000209060030201604051806060016040529081600082015481526020016001820180546100fd9061093a565b80601f01602080910402602001604051908101604052809291908181526020018280546101299061093a565b80156101765780601f1061014b57610100808354040283529160200191610176565b820191906000526020600020905b81548152906001019060200180831161015957829003601f168201915b505050505081526020016002820160009054906101000a900460ff161515151581525050815260200190600101906100c0565b50505050905090565b6101f06040518060400160405280600881526020017f41646420746f646f0000000000000000000000000000000000000000000000008152506103d7565b60006001600080549050610204919061088c565b905060006040518060600160405280838152602001848152602001600015158152509080600181540180825580915050600190039060005260206000209060030201600090919091909150600082015181600001556020820151816001019080519060200190610275929190610499565b5060408201518160020160006101000a81548160ff02191690831515021790555050505050565b60005b6000805490508110156103d35781600082815481106102e7577f4e487b7100000000000000000000000000000000000000000000000000000000600052603260045260246000fd5b90600052602060002090600302016000015414156103c05760008181548110610339577f4e487b7100000000000000000000000000000000000000000000000000000000600052603260045260246000fd5b906000526020600020906003020160020160009054906101000a900460ff161560008281548110610393577f4e487b7100000000000000000000000000000000000000000000000000000000600052603260045260246000fd5b906000526020600020906003020160020160006101000a81548160ff0219169083151502179055506103d3565b80806103cb9061099d565b91505061029f565b5050565b61046d816040516024016103eb91906107ae565b6040516020818303038152906040527f41304fac000000000000000000000000000000000000000000000000000000007bffffffffffffffffffffffffffffffffffffffffffffffffffffffff19166020820180517bffffffffffffffffffffffffffffffffffffffffffffffffffffffff8381831617835250505050610470565b50565b60008151905060006a636f6e736f6c652e6c6f679050602083016000808483855afa5050505050565b8280546104a59061093a565b90600052602060002090601f0160209004810192826104c7576000855561050e565b82601f106104e057805160ff191683800117855561050e565b8280016001018555821561050e579182015b8281111561050d5782518255916020019190600101906104f2565b5b50905061051b919061051f565b5090565b5b80821115610538576000816000905550600101610520565b5090565b600061054f61054a846107f5565b6107d0565b90508281526020810184848401111561056757600080fd5b6105728482856108f8565b509392505050565b600082601f83011261058b57600080fd5b813561059b84826020860161053c565b91505092915050565b6000813590506105b381610a84565b92915050565b6000602082840312156105cb57600080fd5b600082013567ffffffffffffffff8111156105e557600080fd5b6105f18482850161057a565b91505092915050565b60006020828403121561060c57600080fd5b600061061a848285016105a4565b91505092915050565b600061062f838361072d565b905092915050565b600061064282610836565b61064c8185610859565b93508360208202850161065e85610826565b8060005b8581101561069a578484038952815161067b8582610623565b94506106868361084c565b925060208a01995050600181019050610662565b50829750879550505050505092915050565b6106b5816108e2565b82525050565b60006106c682610841565b6106d0818561086a565b93506106e0818560208601610907565b6106e981610a73565b840191505092915050565b60006106ff82610841565b610709818561087b565b9350610719818560208601610907565b61072281610a73565b840191505092915050565b6000606083016000830151610745600086018261077d565b506020830151848203602086015261075d82826106bb565b915050604083015161077260408601826106ac565b508091505092915050565b610786816108ee565b82525050565b600060208201905081810360008301526107a68184610637565b905092915050565b600060208201905081810360008301526107c881846106f4565b905092915050565b60006107da6107eb565b90506107e6828261096c565b919050565b6000604051905090565b600067ffffffffffffffff8211156108105761080f610a44565b5b61081982610a73565b9050602081019050919050565b6000819050602082019050919050565b600081519050919050565b600081519050919050565b6000602082019050919050565b600082825260208201905092915050565b600082825260208201905092915050565b600082825260208201905092915050565b6000610897826108ee565b91506108a2836108ee565b9250827fffffffffffffffffffffffffffffffffffffffffffffffffffffffffffffffff038211156108d7576108d66109e6565b5b828201905092915050565b60008115159050919050565b6000819050919050565b82818337600083830152505050565b60005b8381101561092557808201518184015260208101905061090a565b83811115610934576000848401525b50505050565b6000600282049050600182168061095257607f821691505b6020821081141561096657610965610a15565b5b50919050565b61097582610a73565b810181811067ffffffffffffffff8211171561099457610993610a44565b5b80604052505050565b60006109a8826108ee565b91507fffffffffffffffffffffffffffffffffffffffffffffffffffffffffffffffff8214156109db576109da6109e6565b5b600182019050919050565b7f4e487b7100000000000000000000000000000000000000000000000000000000600052601160045260246000fd5b7f4e487b7100000000000000000000000000000000000000000000000000000000600052602260045260246000fd5b7f4e487b7100000000000000000000000000000000000000000000000000000000600052604160045260246000fd5b6000601f19601f8301169050919050565b610a8d816108ee565b8114610a9857600080fd5b5056fea2646970667358221220007cb158c183fefc5f1a60472f62fcf76bfb5fcfb3797c8fe720bad37359b09864736f6c63430008040033",
  "linkReferences": {},
  "deployedLinkReferences": {}
}